S016000073657175656E6365725F76302E312E73726563DF
S11300000C9434000C9451000C9451000C94510045
S11300100C9451000C9451000C9451000C94510018
S11300200C9451000C9451000C9451000C94510008
S11300300C9451000C9451000C9451000C945100F8
S11300400C9451000C9451000C9451000C945100E8
S11300500C9451000C9451000C9451000C945100D8
S11300600C9451000C94510011241FBECFEFD8E022
S1130070DEBFCDBF11E0A0E0B1E0E6E5F1E002C0F3
S113008005900D92A630B107D9F721E0A6E0B1E0C2
S113009001C01D92A630B207E1F70E9495000C94AE
S11300A0A9000C940000409A9AE19A95F1F700C0D7
S11300B098B1282F269526952C73937C922B98B96A
S11300C09AE19A95F1F700C0419A9AE19A95F1F76D
S11300D000C041989AE19A95F1F700C098B1880F51
S11300E0880F8C73937C892B88B98AE18A95F1F700
S11300F000C0419A9AE19A95F1F700C0419881E2D3
S11301008A95F1F700000895CF93DF93EC0188817D
S1130110882331F021960E94530089918111FBCFED
S1130120DF91CF910895259A08950E94930080E06D
S113013091E00E9484002D9A2FEF89E698E12150E6
S113014080409040E1F700C0000085B1807285B91D
S1090150EECFF894FFCF8E
S109015661686F6A0000FD
S9030000FC
