S016000073657175656E6365725F76302E312E73726563DF
S11300000C9434000C94C8010C9451000C945100CD
S11300100C9451000C9451000C9451000C94510018
S11300200C9451000C9451000C9451000C94510008
S11300300C9451000C9409020C9451000C9451003E
S11300400C9451000C9451000C9451000C945100E8
S11300500C9451000C9451000C9451000C945100D8
S11300600C9451000C94510011241FBECFEFD8E022
S1130070DEBFCDBF16E0A0E0B1E0EAEBF7E002C0DE
S113008005900D92A232B107D9F726E0A2E2B6E0BC
S113009001C01D92A832B207E1F70E94A6010C9498
S11300A0DB030C940000299A8AE08A95F1F700C0DA
S11300B029980895CF93C82F662311F0289A01C078
S11300C028985F98229A239A249A259A2D982C98F6
S11300D02B982A98C7FD2D9AC6FD2C9AC5FD2B9AFC
S11300E0C4FD2A9A0E9453002D982C982B982A9884
S11300F0C3FD2D9AC2FD2C9AC1FD2B9AC0FD2A9AEC
S11301000E9453002A9A2B9A2C9A2D9ACF910895E3
S113011028985F9A2298239824982598299A8AE007
S11301208A95F1F700C01A9B02C080E101C080E00B
S11301301B9980621C9980641D99806829989AE0B3
S11301409A95F1F700C0299A9AE09A95F1F700C0C0
S11301501A9981601B9982601C9984601D9988603A
S1130160299808950E94880087FDFCCF8AE28A9529
S1130170F1F700C00C948800CF93C82F0E94B200FE
S113018060E08C2FCF910C945A00611102C080580A
S113019001C080540C94BC0081E00C94BC00CF934B
S11301A0C82F0E94B200CA3049F4803410F080E0B5
S11301B001C080E48058CF910C94BC0061E08C2F86
S11301C0CF910C945A00CF93DF93EC01899188234B
S11301D019F00E94CF00FACFDF91CF910895CF9309
S11301E0C82F209A579A219A229A239A249A259AB8
S11301F08FEF99EF0197F1F700C000002B9A2A9A2C
S11302000E9453008FEA9FE40197F1F700C00000B9
S11302100E9453008FE391E00197F1F700C00000C2
S11302200E9453008FE391E00197F1F700C00000B2
S11302302A980E9453008FE391E00197F1F700C0E0
S1130240000088E20E94BC0088E00E94BC000E947A
S1130250CC0086E00E94BC008C2FCF910C94BC0093
S1130260E1E8F0E0808184608083089584B18F6741
S113027084B952985A9AE9E6F0E0808181608083DB
S1130280EFE6F0E08081816080838CE00E94EF00E3
S11302900E94CC0078940C94A303813011F40C9444
S11302A03001809181008B7F80938100089581309B
S11302B011F4E89A0895E898089580E00E944D01A9
S11302C084E091E090932506809324061092000127
S11302D088E893E1909385008093840088E191E01D
S11302E00E94BE030C94300180E00E944D018FE413
S11302F091E0909325068093240681E08093000189
S113030084EF91E0909385008093840082E691E0ED
S11303100E94BE030C94300180E00E944D01809144
S11303200201813049F486E891E090932506809398
S113033024068BE991E008C08EEC91E090932506A9
S11303408093240686EE91E00C94BE030E9436014D
S113035081E092E0909325068093240685E092E064
S11303600E94BE038AEF9FEF9093850080938400E0
S113037082E0809302010E943001809124069091D2
S113038025060E94E30060E080E00E94C500F5CFEE
S11303901F920F920FB60F9211242F933F934F93F6
S11303A05F936F937F938F939F93AF93BF93EF93D9
S11303B0FF9380E00E944D018EE89DEF90938500AD
S11303C08093840080910101813049F4809100017F
S11303D090E090932706809326061092010185E011
S11303E0809300018BE492E00E94BE030E943001DE
S11303F0FF91EF91BF91AF919F918F917F916F91F9
S11304005F914F913F912F910F900FBE0F901F90CE
S113041018951F920F920FB60F9211242F933F93AA
S11304204F935F936F937F938F939F93AF93BF93F8
S1130430CF93EF93FF93C0910001C23009F46DC0D4
S113044028F4CC2361F0C130D1F168C1C43009F47F
S113045007C108F47BC0C53009F42CC15FC180E03A
S11304600E944D01C0912206C130A9F482E792E0B6
S1130470909325068093240686E892E00E94BE03AA
S113048084EF91E090938500809384000E94300172
S1130490C093000146C18DE992E0909325068093B4
S11304A0240682EB92E00E94BE0388E893E19093D5
S11304B085008093840082E0809300019CC080E0EA
S11304C00E944D01809122068130A1F489EC92E0D2
S11304D090932506809324068BED92E00E94BE0340
S11304E084EF91E090938500809384000E94300112
S11304F082E015C180EF92E0909325068093240654
S113050084E093E00E94BE0384EF91E09093850021
S1130510809384000E943001CAC080E00E944D0193
S113052080912206813039F48BE193E00E94BE036E
S11305308FE293E006C082E493E00E94BE0389E563
S113054093E09093250680932406EBC080E00E94FC
S11305504D0180E00E94570180910101813009F032
S11305604DC08AE693E00E94BE038BED93E0909326
S11305702506809324062FEF89E698E121508040D8
S11305809040E1F700C0000080EF92E090932506D0
S1130590809324062FEF89E698E121508040904013
S11305A0E1F700C000008FEE93E09093250680935E
S11305B024062FEF83E294EF215080409040E1F72E
S11305C000C0000083E094E0909325068093240605
S11305D01092850010928400809103018F5F8093B4
S11305E0030183E08093000181E090910101911166
S11305F080E0809301010E94300193C08091030147
S11306008A30B8F410928500109284008F5F809332
S1130610030183E08093000187E194E00E94BE031C
S1130620809103010E94B70386EC95E00E94BE030B
S1130630E2CF84E294E00E94BE0387EB94E09093BF
S113064025068093240684E08093000180EF9FEFC9
S113065090938500809384001092030181E0C9CFB8
S113066080E00E944D01809102018823A9F08BEC67
S113067094E00E94BE0386E295E090932506809361
S1130680240610920201C09300018AEF90E0909337
S1130690850080938400AFCF8BE395E00E94BE0376
S11306A088EC95E09093250680932406E89A1092AE
S11306B0000137C080E00E944D018AED95E00E9460
S11306C0BE0389B184700E94B7038091260680938B
S11306D000014A990EC09DEF980F923050F08BEEB6
S11306E095E00E94BE0381E0809322060E945D0192
S11306F018C04A9B0CC08350823048F084EF95E0C8
S11307000E94BE03109222060E9474010AC08DEF5B
S113071095E00E94BE030E948C0103C083E0809395
S11307200001FF91EF91CF91BF91AF919F918F9174
S11307307F916F915F914F913F912F910F900FBED9
S11307400F901F90189580E190E09093C5008093DE
S1130750C40082E08093C000E1ECF0E088E1808393
S113076086E08093C20080818068808308959091A0
S1130770C00095FFFCCF8093C60008950F931F938C
S1130780CF93DF938C018091230691E0980F90938F
S113079023068A3021F40E94B70310922306E8014D
S11307A08991882319F00E94B703FACFDF91CF9182
S10D07B01F910F910895F894FFCFF4
S11307BA0301020973772072656C312B7475726EAA
S11307CA2066616E2020200062796C6F207A6D6148
S11307DA636B6E75746F20746C616369746B6F2CD0
S11307EA207A6170696E616D20746564792072651E
S11307FA6C652031206120766574726F6E0A00532D
S113080A7769746368204F46462055636320202025
S113081A200062796C6F2070757374656E6F207432
S113082A6C616369746B6F2C20767970696E616D83
S113083A205563630A006E617374616C6120636896
S113084A7962612020202020202000506F207374B8
S113085A6C6163656E692062796C61206E61737480
S113086A6176612063687962612C206E656D6F68B8
S113087A7520736520737075737469740A0044690A
S113088A766E792C20567365204F4B202020202029
S113089A202020202000546F206A65206469766E27
S11308AA792C20767365206A6520757A206F6B0A25
S11308BA00506F6B005374617274202C2076736538
S11308CA207679706E6520736B6F6B656D20646F2B
S11308DA206661756C7420612070726F7665646538
S11308EA207072766E69207465737420762061664E
S11308FA7465725F6661756C740A0050726572750C
S113090A73656E692049535220494E54302C207322
S113091A6B61636520646F20746573745F5054540B
S113092A0A00537769746368204F4E2072656C20FD
S113093A3220202020006576656E7430207A61703A
S113094A696E616D2072656C6520320A005377699D
S113095A746368204F46462072656C20322020203A
S113096A20006576656E743020767970696E616DE3
S113097A2072656C6520320A0053776974636820B3
S113098A4F4E2062696173202020006576656E747B
S113099A31207A6170696E616D20626961730A003F
S11309AA537769746368204F4646206269617320ED
S11309BA202020006576656E7420312020767970B7
S11309CA696E616D20626961730A006576656E7489
S11309DA32207A6170696E616D205563630A00532F
S11309EA7769746368204F4E205563632020202062
S11309FA20006576656E743220767970696E616D51
S1130A0A2072656C6520320A005377697463682022
S1130A1A4F46462072656C2031006E617374616CB6
S1130A2A206661756C74202D206661756C74207063
S1130A3A6F737475706E6520767365207679706E3F
S1130A4A7520612064727AED6D2064656C73692087
S1130A5A646F62752C207465647920746F686C65A0
S1130A6A2076736520766365746E6520767970697D
S1130A7A6E616E6920767365686F2064656C616D5A
S1130A8A207A6E6F76752E2E2E0A00537769746358
S1130A9A68204F4646205563632020202020007397
S1130AAA7769746368204F46462072656C20322049
S1130ABA202000726F7A6D7264616C7320746F20E7
S1130ACA202020202020006661756C745F636F7596
S1130ADA6E743A006A616B2070726F6265686E6543
S1130AEA2078206F70616B6F76616E69206661751C
S1130AFA6C7475202876207072766E696D20737412
S1130B0A6172747520707265646E6173746176655E
S1130B1A6E79206A656E6F6D206E61206A65646EF7
S1130B2A6F2070726F6A6574ED292C2070616B20D6
S1130B3A7A6B6F6E74726F6C756A75206A657374FA
S1130B4A6C69206A6520757A20767365204F4B207C
S1130B5A534B4F4B454D206E61206166746572207C
S1130B6A6661756C740A00436865636B696E672015
S1130B7A70726F63657373202020005075737465F7
S1130B8A6E692041444320612063656B616E69206C
S1130B9A6E61206B6F6D7061726163692C206E796E
S1130BAA6E692073696D756C756A69207A65207639
S1130BBA7365204F4B207065766E796D206E617374
S1130BCA746176696D206661756C745F666C6167C1
S1130BDA203D20300A0053572652442041444320E2
S1130BEA6120434F4D502020202000706F6B7564A4
S1130BFA20767365204F4B2C2070616B20736B61D8
S1130C0A63652073656D2061206E61737461766912
S1130C1A20637572656E74207374617465206576D9
S1130C2A656E74302C207465647920756D6F7A6EE4
S1130C3A656E6F2073746172746F7661742070725A
S1130C4A657320746C616369746B6F20646F2055DB
S1130C5A502C20445720706F6B7564206B6F6D7035
S1130C6A617261746F72206E657370757374692032
S1130C7A6661756C74200A00567365204F4B2020F8
S1130C8A202020202020202020006A73656D2076F1
S1130C9A2063617365205054540A007A6170696E46
S1130CAA616D0A00767970696E616D0A00546C612F
S1130CBA63697320616C65206E657A61706E752054
S1130CCA73652C206D616D20706F72756368750A87
S1050CDA000014
S9030000FC
